:1000000000000120910100007F0300008103000037
:100010008303000085030000870300000000000048
:100020000000000000000000000000008903000044
:100030008B030000000000008D0300008F03000010
:100040009103000093030000950300009703000054
:10005000990300009B0300009D0300009F03000024
:10006000A1030000A3030000090A0000250A000004
:10007000A9030000AB030000AD030000AF030000C4
:10008000B1030000B3030000B5030000D50A00006F
:10009000B9030000BB030000BD030000BF03000064
:1000A000C1030000C3030000C5030000590E000097
:1000B000F90E0000CB030000CD030000CF030000C9
:1000C000D1030000D3030000D5030000D7030000D4
:1000D000D9030000DB030000DD030000DF030000A4
:1000E000E1030000E3030000E5030000E703000074
:1000F000E9030000EB030000ED030000EF03000044
:10010000F1030000F3030000F5030000F703000013
:10011000F9030000FB030000FD030000FF030000E3
:1001200001040000030400000504000007040000AF
:10013000090400000B0400000D0400000F0400007F
:10014000110400001304000015040000170400004F
:10015000190400001B0400001D0400001F0400001F
:1001600021040000230400002504000027040000EF
:10017000290400002B0400002D0400002F040000BF
:100180003104000033040000000000000000000003
:100190004FF0000BDFF8BE020068DFF8B612096806
:1001A00001F0030100F01C00142801D14BF0020BF8
:1001B000002901D04BF0010BBBF1000F05D0A7487F
:1001C000A749DFF8722200F09FF8A64880470BF09D
:1001D000020ABAF1000F0CD0DFF86E02DFF86E12DF
:1001E00002680B680FB44FF000024FF0FF0302608B
:1001F0000B609D489D4A9E4B022808D1DFF83E12B5
:100200000A60DFF842120A60DFF836120B6001283C
:1002100008D1DFF82E120A60DFF82A120A60DFF830
:100220001E120B609348002809D193489349944AC1
:1002300000F032F893489449944A00F02DF894481D
:100240009449954A00F028F894489549DFF8E6214A
:1002500000F05AF8BBF1000F12D092489249DFF833
:10026000DA2100F051F80BF0020ABAF1000F07D0C2
:100270000FBC02600B6000BFAFF30080AFF30080E3
:10028000DFF828020FF2030E00474FF000004FF096
:100290000001DFF81CF2FEE72DE9F841884225D085
:1002A000B2EB010200D5FEE740EA010313F00303BD
:1002B00002D000F01DF819E04FF000039046121133
:1002C000F7D09A421CBFF0C8F0C103F10103F8D186
:1002D00008F00F08B8F1000F08D004780C7000F196
:1002E000010001F10101B8F10108F6D1BDE8F88182
:1002F00008B54FF0000303780B7000F1010001F125
:100300000101013AF7D108BD884237D000F0030659
:10031000002E14D04FF00405A5EB06044FF008079B
:1003200007FB06F8914669FA08F9002C07D080F817
:10033000009069FA07F900F10100013CF5E74FF080
:1003400000060F46091A88460911914614461546BB
:10035000B14206D018BFA0E8340206F10106B1424E
:10036000F8D108F00F08B8F1000F07D002704FEA7B
:10037000322200F10100B8F10108F4E77047FEE70E
:10038000FEE7FEE7FEE7FEE7FEE7FEE7FEE7FEE745
:10039000FEE7FEE7FEE7FEE7FEE7FEE7FEE7FEE735
:1003A000FEE7FEE7FEE7FEE7FEE7FEE7FEE7FEE725
:1003B000FEE7FEE7FEE7FEE7FEE7FEE7FEE7FEE715
:1003C000FEE7FEE7FEE7FEE7FEE7FEE7FEE7FEE705
:1003D000FEE7FEE7FEE7FEE7FEE7FEE7FEE7FEE7F5
:1003E000FEE7FEE7FEE7FEE7FEE7FEE7FEE7FEE7E5
:1003F000FEE7FEE7FEE7FEE7FEE7FEE7FEE7FEE7D5
:10040000FEE7FEE7FEE7FEE7FEE7FEE7FEE7FEE7C4
:10041000FEE7FEE7FEE7FEE7FEE7FEE7FEE7FEE7B4
:10042000FEE7FEE7FEE7FEE7FEE7FEE7FEE7FEE7A4
:10043000FEE7FEE7704700000000A2A2A2A2008033
:100440000340088003401080034030800340348024
:1004500003403880034018080240000000F80020E4
:1004600000000120AD0F00000000000000000000AF
:10047000010000000000000000000000000000007B
:1004800090010000C0040000C00400000012000041
:100490000012000000F0002020F0002020F00020DA
:1004A00010F1002010F1002000F8002029110000B8
:1004B000DD1000000000000000000000000000004F
:1004C00010B5054C237833B9044B13B10448AFF38E
:1004D00000800123237010BD20F0002000000000E8
:1004E000D4110000084B10B51BB108480849AFF300
:1004F00000800848036803B910BD074B002BFBD0F0
:10050000BDE81040184700BF00000000D4110000F3
:1005100024F0002000F0002000000000244B98424E
:1005200003D0244A904200D000BE0269002A3AD08B
:10053000416901B900BE984203D01E4B984200D0D9
:100540007047002AFCD00029FAD030B40468457BFB
:10055000237DDBB21D4313F0200F4573836911D057
:10056000CD1A0F2D21D91025002101E00468026960
:10057000D35C013123708369A94203F101038361D4
:10058000F4D3416999420CD103680021043303F08C
:10059000704202F10072C3F3130304325B01416144
:1005A000D15030BC704700BEC2E7002DDCD1E9E776
:1005B000CCF000208CF000202DE9F04FDFF864E251
:1005C00083B070450446904600F0DB808F4B984224
:1005D00000D000BE8E488F4B05469A6C8E4E42F47A
:1005E00080724FF00B0C4FF40067206084F804C059
:1005F0009A64C6F880719A6C22F480729A6400231F
:100600002B7122684FF0010C13722268744502F1BD
:10061000080002F1100502F13409C0F3130A00F0DA
:10062000704002F1380702F13006C5F3130B00EBFE
:100630004A1005F07045C9F3130A09F0704905EB3B
:100640004B1509EB4A19C7F3130BC6F3130A07F04E
:10065000704706F0704607EB4B1706EB4A1600F1A1
:10066000007006F1007605F1007509F1007907F1D7
:100670000077C0F804C0C0F808C0C0F800C02B6103
:100680006B61C9F80430C9F800307B607361B361F5
:10069000F361FB6082F84430226882F848302268B7
:1006A00082F84C3000F08280584B9C4217D000BE3C
:1006B0002268002382F80C80A16084F80C806361BA
:1006C0002361A36123626362E361A362E362236344
:1006D0006363A363E363637303B0BDE8F08FA1605A
:1006E000019100F083FC4D4B01991B68DB00B3FBCB
:1006F000F1F2D309B3F5803F4FEA520ED7D2012B66
:1007000026684FF0010759D906F10C0000F070453A
:1007100005F10075C0F31300C2F3C73C1C3540015E
:100720002F5086F804C02068DDB205702668AEEB55
:10073000831E06F10C0506F13000AEEBC31305F085
:10074000704900F0704C1344A3EB4E0309F10072A2
:10075000C5F313050CF1007CC0F313001C326D01CE
:100760004FF0000E0CF11C0C4001FF2B42F805E08D
:100770004CF8007000D900BEDBB286F83C3022682D
:1007800097E7244B24489A6C4FF4806542F080022E
:100790004FF080470A26276026719A64C0F880517E
:1007A0009A6C256822F080029A6428E7A160019182
:1007B00000F01CFC1A4B01991B6897E706F10C022C
:1007C00002F0704000F10070C2F3130200251C30EB
:1007D0005201875035712268DBB21370226802F132
:1007E0000C0002F1300300F0704703F0704607F18F
:1007F0000077C0F3130006F10076C3F313031C3730
:1008000040011C365B013D50F55052E78CF0002052
:10081000000001400080034000E100E018F00020EB
:1008200014F00020CCF000200268137A03F00F03CC
:100830000C2B0AD8DFE803F007090F1371090B0925
:10084000090909097100836A23B900BE7047C369A9
:10085000002BFAD01847436A002BF6D018472832ED
:1008600002F07043C2F31302520103F10071895880
:1008700010B511F0FF0F04460AD0C16A002959D003
:10088000884723682833C3F31302520103F07043EF
:100890001A4402F100735B6813F0FF0F0CD0236B56
:1008A000002B45D0204698472268283202F070433A
:1008B000C2F3130203EB421202F100739B6813F0C0
:1008C000FF0F0CD0636B002B30D020469847226876
:1008D000283202F07043C2F3130203EB421202F11A
:1008E0000073DB6813F0FF0F0BD0A36BE3B120465E
:1008F00098472268283202F07043C2F3130203EBD8
:10090000421202F10072136913F0FF0F09D0E36B7A
:1009100043B12046BDE810409CE7036A002B94D009
:10092000184710BD00BE10BD00BEEAE700BED6E706
:1009300000BEC1E700BEABE7F8B5194B04469842CC
:1009400003D0184B984200D000BE2046FFF734FE7B
:100950002368154E03F1300103F1340201F07045B4
:10096000383302F0704003F0704705F10075C1F3B1
:10097000130100F10070C2F31302C3F313034FF02D
:10098000000E0C3549010830520107F100775B0178
:1009900045F801E040F802E047F803E06662F8BD80
:1009A000CCF000208CF000201D050000144B70B42A
:1009B000984206D0134B984203D000BEE1B170BC00
:1009C0007047C9B10E78002EF9D000250468427B2B
:1009D000237DDBB21A439B064273F9D54B1905F10F
:1009E000100200E00468267013F8016F0135002E34
:1009F000E5D09542F6D1E9E700BE70BC704700BF74
:100A0000CCF000208CF00020684620F007018D46D5
:100A100001B50348FFF708FFBDE801408546704770
:100A2000CCF00020684620F007018D4601B5034850
:100A3000FFF7FAFEBDE80140854670478CF00020C4
:100A400030B4124C82B0236823F00403236063683F
:100A500003F001030193019BABB181B1451E00225C
:100A600001E08A420BD015F8013F0132236163682F
:100A700003F001030193019B002BF2D111460846BC
:100A800002B030BC70471946F9E700BF0060014072
:100A90000B4B10B50B4C1988236889B233B10A4A45
:100AA00010689847094A002313702360084B1A46C0
:100AB000196841F0010119601368DB07FCD410BD0F
:100AC0005CF0002058F0002064F0002048F0002086
:100AD00000600140914AF8B553689468DBB21C404D
:100AE000A0071DD4E10700D4F8BD8D4E3378022B4A
:100AF00061D0052B2FD0012B4ED0884A894C9368AA
:100B000023F00103936023683BB1874A00211068FA
:100B10009847864A00231370236000233370F8BD82
:100B200010697F4E20F4FF43327823F07F039DB29B
:100B3000C0B2052A00F2BC80DFE812F091009D00EF
:100B40009D00A50064005000794B1A68002A40F00F
:100B50008F80E307C8D5774C236883B9764B1B6831
:100B6000002B00F0D280754898472060236833B985
:100B70006A4A0321936823F001039360317023686C
:100B80006C4C002B40F0B580644A0321936823F03D
:100B9000010393603170F8BD694C23889BB2002B30
:100BA00040F0938000BE614B1B78002B9CD0BDE8C9
:100BB000F840FFF76DBF5F4C2368002BF2D05F4D0C
:100BC00021682868FFF73CFF23689842DCD223683D
:100BD0002A681B1A104423602860F8BD002DB3D189
:100BE000514B504F1A683B6850702BB11046022190
:100BF00098474E4B3D601D7000233370E2077FF530
:100C000073AF7AE7002D2FD14E4A474913880D68FC
:100C10009BB22B4413F8013CF12B00F0A5804A490C
:100C2000138809889BB28B4206D217881388BFB2FB
:100C300001339BB2E85513801388424A9BB2994214
:100C40007FF450AF374F13883A6899B2002AD3D057
:100C500028469047354A002313703B60CCE7002DAF
:100C6000CCD0F12800F09080314B1A68002AC5D012
:100C70001B68984736E7002D3FF434AF2C4B1A68B9
:100C8000002AF5D12EE7002DB8D0304B1B789842C2
:100C9000EAD12C4A002313801188234D13882F6832
:100CA000013389B29BB20425138078543570A5E7CF
:100CB0001C4D2B68002B9FD01B4A002110689847C1
:100CC0001A4A002313702B6096E7214F21883D6854
:100CD00089B22846FFF7B4FE23889BB2984239D3E5
:100CE0000022144B22801B68002B3AD00223337061
:100CF000F8BD124D21682868FFF7A2FE2A68236814
:100D00000244181A2A602060F8BD00BE074B1B7809
:100D1000002B3FF434AFFFF7BBFE30E7006001402B
:100D200068F0002058F0002064F0002048F0002017
:100D30004CF0002060F0002040F0002054F0002033
:100D400050F000205CF000203CF0002069F0002012
:100D500044F00020238805441B1A9BB23D60238089
:100D6000F8BD03233370F8BD1188104F13888AB281
:100D70009BB23968A8541D4415F8010C00293FF4B2
:100D80003BAF3B68984737E7094B00271F8019881E
:100D90001A88084D013292B21A801B882D688AB2D7
:100DA0009BB20421A8543170EF5427E74CF0002087
:100DB0005CF0002064F000202DE9F041224CDFF8C7
:100DC00094E02468214D4FEA840C0CEB04064FEAB2
:100DD0008608F70108F1402606F58036BE44CEF8B5
:100DE000043045447060B1606E68B2F5803F4FEAF0
:100DF00016464FEA06466E601BD86B6892B21449DD
:100E00001A4300236A600B616444104AA3001A4429
:100E10005168E40104F1844303F5201341F4E00137
:100E2000012500245160C3F8C051C3F8CC41BDE88E
:100E3000F081074BA2F5803201F5803100F580305A
:100E40001A61D9609860DFE788F00020084001400F
:100E50006CF00020C0012842684620F007018D4652
:100E600079B52048204A0368204C03EB83018900B0
:100E700003F52875012644F825600A445168334477
:100E8000042B08BF002321F4E00151600360184BDC
:100E90001A697AB11748016804290CBF0021013191
:100EA00001609868D9681B7DFFF786FFBDE879402F
:100EB0008546704702680C4902EB82029200114499
:100EC0004A68084C12F4E002F0D10A4D596801203A
:100ED00022602A6018700029E8D08847BDE8794070
:100EE0008546704784F000200840014000002842F9
:100EF0006CF0002088F00020684620F007018D4645
:100F0000244B31B51B6813F4706F19D0224C236841
:100F10009900CA18D20102F1844202F52012D2F8D7
:100F200008223AB11D4A02205568107015B1A84731
:100F3000236899000B441A4ADB011A4453680BBB1F
:100F4000144B1B6813F4704F05D0144B04205A68DF
:100F5000187002B19047BDE83140124A124901238E
:100F6000C2F8C8318546C2F8803AC2F84834C1F8A0
:100F7000803AC2F8C836C1F8843AC2F84839C1F894
:100F8000883A7047054B03205A681870002AD7D05A
:100F90009047D5E70040014084F000206CF000202D
:100FA0000802284200002842040028424FF60202AC
:100FB0000C4BD3F84C11914206D00B4A536943F4C1
:100FC00000735361FFF736BAD3F8982042F4807269
:100FD000C3F89820D3F8982022F08062C3F89820B4
:100FE000EBE700BF0080034000ED00E0F0B5244BCC
:100FF00083B0D3F89820510117D4D3F89820D204A5
:101000002ED56A461F490868496803C2D3F89C2058
:1010100002A9C2F382120A4412F8082C012A23D032
:1010200003D3DFF88CE0184B09E0D3F85011174ACE
:1010300011F0040F164B18BF1346DFF874E0154F7C
:10104000154E164D164C1748174A1849CEF8003061
:101050003B6033602B6023600360116003B0F0BD20
:10106000DFF84CE0094BEAE7DFF844E0094F0A4EAD
:101070000A4D0B4C0B480C4A0C494FF40043E5E772
:10108000008003407411000040420F0080F0FA021B
:1010900040787D0114F0002018F000200CF00020B2
:1010A00010F0002004F0002008F0002020BCBE005A
:1010B0001CF0002008B54FF000531B6883F308882C
:1010C000044A05491368096843F00103136088471F
:1010D000FEE700BF008003400400002008B50322A3
:1010E0000B484FF46141FFF727FC09480949FFF716
:1010F0005DFC07480849FFF759FC084A084B0948B6
:1011000053F8041B834242F8041FF9D1FFF7D2FFC2
:101110008CF000207C110000A0110000FCFFFF1FDC
:101120000000026000F002600E4B70B51E460E4CCF
:101130000025E41AA410A54204D056F8253098479B
:101140000135F8E700F046F8084B094C1E46E41A52
:10115000A4100025A54204D056F825309847013543
:10116000F8E770BDEC110000EC110000EC1100007C
:10117000F011000000010001020203030A0D0A0D34
:101180002A2A2A20536D617274467573696F6E3214
:10119000204953502044656D6F202A2A2A0A0D00E9
:1011A0000A0D52656D6D6170696E67207468652007
:1011B0006D61696E206170706C69636174696F6ED6
:1011C00020636F646520746F20655352414D5F301A
:1011D000200A0D00F8B500BFF8BC08BC9E46704759
:1011E000F8B500BFF8BC08BC9E467047E504000097
:1011F000C10400000000000000000000000000002A
:101200000000000080F0FA0220BCBE0080F0FA026C
:1012100080F0FA0280F0FA0280F0FA0280F0FA021E
:040000030000019167
:00000001FF
