:020000042000DA
:1000000000000120910100207F03002081030020D7
:1000100083030020850300208703002000000000E8
:100020000000000000000000000000008903002024
:100030008B030020000000008D0300208F030020B0
:100040009103002093030020D5390020F9390020C6
:10005000990300209B0300209D0300209F030020A4
:10006000A1030020A3030020D9170020FD170020C2
:10007000A9030020AB030020AD030020AF03002044
:10008000B1030020B3030020B5030020314200205B
:10009000B9030020BB030020BD030020BF030020E4
:1000A000C1030020C3030020C5030020C7030020B4
:1000B000C9030020CB030020CD030020CF03002084
:1000C000D1030020D3030020D5030020D703002054
:1000D000D9030020DB030020DD030020DF03002024
:1000E000E1030020E3030020E5030020E7030020F4
:1000F000E9030020EB030020ED030020EF030020C4
:10010000F1030020F3030020F5030020F703002093
:10011000F9030020FB030020FD030020FF03002063
:10012000010400200304002005040020070400202F
:10013000090400200B0400200D0400200F040020FF
:1001400011040020130400201504002017040020CF
:10015000190400201B0400201D0400201F0400209F
:10016000210400202304002025040020270400206F
:10017000290400202B0400202D0400202F0400203F
:1001800031040020330400200000000000000000C3
:100190004FF0000BDFF8BE020068DFF8B612096806
:1001A00001F0030100F01C00142801D14BF0020BF8
:1001B000002901D04BF0010BBBF1000F05D0A7487F
:1001C000A749DFF8722200F09FF8A64880470BF09D
:1001D000020ABAF1000F0CD0DFF86E02DFF86E12DF
:1001E00002680B680FB44FF000024FF0FF0302608B
:1001F0000B609D489D4A9E4B022808D1DFF83E12B5
:100200000A60DFF842120A60DFF836120B6001283C
:1002100008D1DFF82E120A60DFF82A120A60DFF830
:100220001E120B609348002809D193489349944AC1
:1002300000F032F893489449944A00F02DF894481D
:100240009449954A00F028F894489549DFF8E6214A
:1002500000F05AF8BBF1000F12D092489249DFF833
:10026000DA2100F051F80BF0020ABAF1000F07D0C2
:100270000FBC02600B6000BFAFF30080AFF30080E3
:10028000DFF828020FF2030E00474FF000004FF096
:100290000001DFF81CF2FEE72DE9F841884225D085
:1002A000B2EB010200D5FEE740EA010313F00303BD
:1002B00002D000F01DF819E04FF000039046121133
:1002C000F7D09A421CBFF0C8F0C103F10103F8D186
:1002D00008F00F08B8F1000F08D004780C7000F196
:1002E000010001F10101B8F10108F6D1BDE8F88182
:1002F00008B54FF0000303780B7000F1010001F125
:100300000101013AF7D108BD884237D000F0030659
:10031000002E14D04FF00405A5EB06044FF008079B
:1003200007FB06F8914669FA08F9002C07D080F817
:10033000009069FA07F900F10100013CF5E74FF080
:1003400000060F46091A88460911914614461546BB
:10035000B14206D018BFA0E8340206F10106B1424E
:10036000F8D108F00F08B8F1000F07D002704FEA7B
:10037000322200F10100B8F10108F4E77047FEE70E
:10038000FEE7FEE7FEE7FEE7FEE7FEE7FEE7FEE745
:10039000FEE7FEE7FEE7FEE7FEE7FEE7FEE7FEE735
:1003A000FEE7FEE7FEE7FEE7FEE7FEE7FEE7FEE725
:1003B000FEE7FEE7FEE7FEE7FEE7FEE7FEE7FEE715
:1003C000FEE7FEE7FEE7FEE7FEE7FEE7FEE7FEE705
:1003D000FEE7FEE7FEE7FEE7FEE7FEE7FEE7FEE7F5
:1003E000FEE7FEE7FEE7FEE7FEE7FEE7FEE7FEE7E5
:1003F000FEE7FEE7FEE7FEE7FEE7FEE7FEE7FEE7D5
:10040000FEE7FEE7FEE7FEE7FEE7FEE7FEE7FEE7C4
:10041000FEE7FEE7FEE7FEE7FEE7FEE7FEE7FEE7B4
:10042000FEE7FEE7FEE7FEE7FEE7FEE7FEE7FEE7A4
:10043000FEE7FEE7704700000000A2A2A2A2008033
:100440000340088003401080034030800340348024
:1004500003403880034018080240000000F00020EC
:10046000000001201D3A00200000000000000000F4
:10047000010000000000000000000020000000203B
:1004800090010020C0040020C00400200051002082
:1004900000510020005100205052002050520020F6
:1004A000808600208086002000F00020094A00207D
:1004B000190D0020AFF30080AFF30080AFF3008090
:1004C00045F25023C2F200031A780AB901201870CD
:1004D000704700BF45F20010C2F2000008B5036883
:1004E0002BB140F20003C0F2000303B1984708BDEE
:1004F00080B584B002AF4FF005033B704FF00003AE
:100500007B6048F2F850C2F200004FF0000102F0A8
:1005100063FE3B464FF01002009248F2F850C2F2E0
:10052000000019464FF0010245F2D023C2F2000349
:1005300002F01EFF45F2D023C2F200031B7803F045
:100540000103002B0BD148F2F850C2F200004FF02B
:10055000000102F0C5FE07F10807BD4680BD3B461D
:100560004FF01002009248F2F850C2F20000194613
:100570004FF0010245F2D023C2F2000302F0F8FE70
:10058000D8E700BF80B5ADF5087D02AF07F10C0CD0
:10059000CCF8000007F10800016039460B6007F154
:1005A0000803A3F102031A804FF00003A7F81632E4
:1005B00007F10803A3F102031A88B7F820321344A5
:1005C000A7F814324FF00003A7F8163211E0B7F87D
:1005D0001632B7F8161207F1080212680A441178A9
:1005E00007F11002D154B7F8163203F10103A7F84E
:1005F000163207F10803A3F10203B7F816221B888D
:100600009A42E4D34FF00003A7F8163216E007F140
:100610000803A3F102031A88B7F816321344B7F897
:1006200016123A4612680A44117807F11002D154A2
:10063000B7F8163203F10103A7F81632B7F81622FD
:10064000B7F820329A42E2D307F11002B7F8143219
:100650004FF00001009148F2F850C2F2000011463C
:100660001A464FF0000302F083FE07F50677BD46F9
:1006700080BD00BF80B58CB002AFF860B9607A6011
:1006800048F2F850C2F200004FF0000102F0A4FD61
:100690004FF006033B7500F04FFA07F114034FF0DB
:1006A0000002009248F2F850C2F2000019464FF0E2
:1006B00001024FF0000302F05BFE4FF039033B757F
:1006C000FB684FEA1343DBB27B75FB684FEA1323E9
:1006D000DBB2BB75FB68DBB2FB7500F02DFA07F1EE
:1006E00014034FF00002009248F2F850C2F20000EA
:1006F00019464FF004024FF0000302F039FE4FF0AC
:1007000006033B7500F018FA07F114034FF00002DE
:10071000009248F2F850C2F2000019464FF0010270
:100720004FF0000302F024FE4FF00003BB617B6832
:10073000FB61FB683B6250E03B6A03F0FF03C3F5DB
:100740008073FB617A68BB69C3EB02037B627A6AE0
:10075000FB699A4201D27B6AFB6100F0EDF94FF030
:1007600006033B7507F114034FF00002009248F2B4
:10077000F850C2F2000019464FF001024FF000039A
:1007800002F0F6FD00F0D8F94FF002033B753B6A2A
:100790004FEA1343DBB27B753B6A4FEA1323DBB2AC
:1007A000BB753B6ADBB2FB75BA68BB691344FA6977
:1007B00091B207F11402009148F2F850C2F2000021
:1007C00011464FF00402FFF7DDFE3A6AFB6913445D
:1007D0003B62BA69FB691344BB61BA697B689A42A0
:1007E000AAD34FF004033B7500F0A6F907F11403F8
:1007F0004FF00002009248F2F850C2F20000194691
:100800004FF001024FF0000302F0B2FD48F2F85041
:10081000C2F200004FF0000102F062FD07F128076C
:10082000BD4680BD80B584B002AF4FF060033B7120
:100830004FF0000000F036F845F20413C2F2000356
:100840001B78184600F048F94FF0000000F02AF835
:1008500048F2F850C2F200004FF0000102F0BCFC78
:1008600000F06AF907F104034FF00002009248F229
:10087000F850C2F2000019464FF0010245F2D023B1
:10088000C2F2000302F074FD00F056F948F2F8508D
:10089000C2F200004FF0000102F022FD07F108074C
:1008A000BD4680BD80B584B002AF0346FB71FB79C5
:1008B000002B25D14FF00603FB7148F2F850C2F22D
:1008C00000004FF0000102F087FC07F107034FF032
:1008D0000002009248F2F850C2F2000019464FF0B0
:1008E000010245F2D023C2F2000302F041FD48F2BA
:1008F000F850C2F200004FF0000102F0F1FC24E0D9
:100900004FF00403FB7148F2F850C2F200004FF0C0
:10091000000102F061FC07F107034FF000020092B2
:1009200048F2F850C2F2000019464FF0010245F2B9
:10093000D023C2F2000302F01BFD48F2F850C2F2CD
:1009400000004FF0000102F0CBFCFFF7D1FD07F1F2
:100950000807BD4680BD00BF80B588B002AFF86013
:10096000B9607A604FF00303FB75FB6823F07F43A7
:100970004FEA1343D9B2FB684FEA03434FEA1343EC
:100980004FEA1323DAB2FB68DBB2F87D387479746E
:10099000BA74FB7448F2F850C2F200004FF0000144
:1009A00002F01AFC00F0C8F87B689AB207F1100355
:1009B000009248F2F850C2F2000019464FF00402CB
:1009C000BB6802F0D5FC00F0B7F848F2F850C2F26C
:1009D00000004FF0000102F083FC4FF000031846C6
:1009E00007F11807BD4680BD80B588B002AFF8603A
:1009F000B9607A604FF00B03FB75FB6823F07F430F
:100A00004FEA1343D9B2FB684FEA03434FEA13435B
:100A10004FEA1323DAB2FB68DBB2F87D38747974DD
:100A2000BA74FB744FF000033B7548F2F850C2F201
:100A300000004FF0000102F0CFFB7B689AB207F193
:100A40001003009248F2F850C2F2000019464FF02D
:100A50000502BB6802F08CFC48F2F850C2F20000BC
:100A60004FF0000102F03CFC07F11807BD4680BDC5
:100A700080B584B002AF6FF06F033B704FF000039E
:100A80007B704FF00003BB704FF00003FB7048F227
:100A9000F850C2F200004FF0000102F09DFB3B460F
:100AA0004FF00202009248F2F850C2F200001946DC
:100AB0004FF0040245F2D023C2F2000302F058FCCA
:100AC00048F2F850C2F200004FF0000102F008FCBA
:100AD00007F10807BD4680BD80B584B002AF03466C
:100AE000FB7148F2F850C2F200004FF0000102F032
:100AF00073FB00F021F807F107034FF000020092AA
:100B000048F2F850C2F2000019464FF0010245F2D7
:100B1000D023C2F2000302F02BFC00F00DF848F2E3
:100B2000F850C2F200004FF0000102F0D9FB07F1CB
:100B30000807BD4680BD00BF80B584B002AF4FF04E
:100B40000503BB7107F1060207F107034FF001012E
:100B5000009148F2F850C2F2000011464FF0010235
:100B600002F006FCFB7903F00103FB71FB79012B1A
:100B7000E8D007F10807BD4680BD00BF80B487B04C
:100B800000AFF860B9607A604FF000037B6116E057
:100B9000BA687B691344FA6812681278D2B21A7084
:100BA0007B6903F101037B6100E000BFFB681B6808
:100BB0001B7DDBB203F00103DBB2002BE8D17A69C5
:100BC0007B689A42F1D37B69184607F11C07BD4642
:100BD00080BC704780B483B000AF786003E07B686E
:100BE00003F1FF337B607B68002BF8D107F10C0722
:100BF000BD4680BC704700BF80B584B000AF786050
:100C000047F2E040C2F200004FF4805100F072FB66
:100C10000346FB607A6847F2E043C2F200031360C8
:100C2000FB68184607F11007BD4680BD80B586B049
:100C300000AF786039604FF00003FB607B683B6178
:100C40003B687B617B6903F00303002B05D07B6964
:100C500023F0030303F104037B6145F25423C2F242
:100C600000031A6845F25823C2F200031B681344BC
:100C7000184639697A69FFF7FDFC45F25423C2F240
:100C800000031A6845F25823C2F200031B6813449C
:100C9000184647F2E021C2F200017A69FFF75CFED4
:100CA00047F2E020C2F2000039697A6903F0D4FE0D
:100CB0000346002B0ED044F66473C2F200031B6897
:100CC000184644F66871C2F200014FF0020200F0CB
:100CD00011FD0DE044F66473C2F200031B68184670
:100CE00044F66C71C2F200014FF0020200F002FD06
:100CF00045F25823C2F200031A687B691A4445F290
:100D00005823C2F200031A60FB68DBB2184607F1F1
:100D10001807BD4680BD00BF80B59AB002AF4FF046
:100D200000037B870BE07A8F45F2E023C2F20003D9
:100D30004FF0000199547B8F03F101037B877B8F78
:100D40000F2BF0D94FF000037B8744F6C073C2F23B
:100D500000031B883B8644F68C73C2F2000307F144
:100D60000C0C9E46BEE80F00ACE80F00BEE80F007A
:100D7000ACE80F00DEF800308CF800304FF02003B4
:100D80003B724FF000024FF00003C7E910234FF011
:100D900000024FF00003C7E9122344F66473C2F265
:100DA00000031B6818464FF461414FF0030200F046
:100DB0005FFC4FF0050387F857304FF0150387F8B5
:100DC00058304FF0000001F0C9F848F2F850C2F274
:100DD000000002F00FF84FF00803009348F2F850BB
:100DE000C2F200004FF000014FF040724FF00803D4
:100DF00002F04AF948F2F850C2F200004FF0000148
:100E000002F0EAF948F2F853C2F200031A6848F215
:100E1000F853C2F200031B681B6843F08063136041
:100E200043F68000C0F20100FFF7D4FE4FF001004E
:100E30004FF0000101F0EEFD034687F83E3044F626
:100E4000C473C2F200031B88BB80FFF711FEFFF7DB
:100E5000E9FC3B6C184645F2E021C2F200014FF478
:100E60008052FFF7C1FD4FF0000001F077F800E07D
:100E700000BF44F66473C2F200031B68184645F2D3
:100E8000E021C2F200014FF00102FFF777FE0346B6
:100E9000002BEED045F2E023C2F200031B78682B52
:100EA000E6D144F66473C2F200031B68184644F6A8
:100EB0007071C2F200014FF0010200F01BFC44F619
:100EC0006473C2F200031B68184645F2E021C2F2C7
:100ED00000014FF00102FFF751FE0346002BEED058
:100EE00045F2E023C2F200031B786E2B0DD144F6CD
:100EF0006473C2F200031B68184644F67471C2F2B0
:100F000000014FF0010200F0F5FB44F66473C2F2F9
:100F100000031B68184645F2E021C2F200014FF0C1
:100F20000102FFF72BFE0346002BEED045F2E02333
:100F3000C2F200031B78732B0DD144F66473C2F226
:100F400000031B68184644F67871C2F200014FF0A6
:100F5000010200F0CFFB44F66473C2F200031B6889
:100F6000184645F2E021C2F200014FF00102FFF7FE
:100F700005FE0346002BEED045F2E023C2F200034B
:100F80001B78612B0DD144F66473C2F200031B6819
:100F9000184644F67C71C2F200014FF0010200F0E5
:100FA000A9FB44F66473C2F200031B68184645F2BD
:100FB000E021C2F200014FF00102FFF7DFFD03461E
:100FC000002BEED045F2E023C2F200031B78652B24
:100FD0000DD144F66473C2F200031B68184644F650
:100FE0008071C2F200014FF0010200F083FB44F671
:100FF0006473C2F200031B68184645F2E021C2F296
:1010000000014FF00102FFF7B9FD0346002BEED0BF
:1010100044F66473C2F200031B68184644F670710C
:10102000C2F200014FF0010200F064FB44F6647369
:10103000C2F200031B68184644F68471C2F2000134
:101040004FF0010200F056FB44F66473C2F2000355
:101050001B68184645F2E021C2F200014FF0010280
:10106000FFF78CFD0346002BEED045F2E023C2F2E1
:1010700000031A7845F26423C2F200031A7044F6A2
:101080006473C2F200031B68184644F68871C2F20A
:1010900000014FF0010200F02DFB44F66473C2F230
:1010A00000031B68184645F2E021C2F200014FF030
:1010B0000802FFF763FD0346002BEED045F2E02067
:1010C000C2F2000003F09CFC03461A4645F2682376
:1010D000C2F200031A6044F66473C2F200031B6894
:1010E000184644F67071C2F200014FF0010200F0A0
:1010F00001FB45F26823C2F200031B684FEA133379
:10110000A7F85A3045F26423C2F200031B78312B52
:1011100011D0322B1CD0302B00D0B3E04FF00000A8
:1011200040F6F931C2F2000141F28922C2F2000216
:1011300001F0C6FBA6E04FF0010040F6F931C2F223
:10114000000141F28922C2F2000201F0B9FB99E0EC
:101150004FF0000000F002FF15E046F2E020C2F27E
:1011600000004FF4805100F0C5F803463B8746F27B
:10117000E020C2F200004FF48051FFF757FD7B8F53
:1011800003F101037B877A8FB7F85A309A42E4D390
:101190004FF000037B87B7F85A304FEA03534FEA0A
:1011A0001353002B6ED045F26823C2F200031B6874
:1011B0004FEA03534FEA1353FF2B1BD845F2682322
:1011C000C2F200031B6887F85E3097F85E3046F283
:1011D000E020C2F20000194600F08CF803463B877D
:1011E00097F85E3046F2E020C2F200001946FFF7A1
:1011F0001DFD47E045F26823C2F200031B684FEA79
:1012000003534FEA13534FEA132387F85D3045F237
:101210006823C2F200031B6887F85E3015E046F2CF
:10122000E020C2F200004FF4807100F063F8034642
:101230003B8746F2E020C2F200004FF48071FFF7D6
:10124000F5FC7B8F03F101037B8797F85D307A8F84
:101250009A42E4D397F85E30002B13D097F85E30B3
:1012600046F2E020C2F20000194600F043F80346BF
:101270003B8797F85E3046F2E020C2F20000194644
:10128000FFF7D4FCFEE700BF80B582B000AF786006
:101290007B68002B0ED144F66473C2F200031B6816
:1012A000184644F6B071C2F200014FF0010200F09E
:1012B00021FA1AE044F66473C2F200031B68184670
:1012C00044F6B471C2F200014FF0010200F012FACC
:1012D00044F66473C2F200031A6807F1040310466F
:1012E00019464FF0080200F005FA07F10807BD465D
:1012F00080BD00BF80B588B000AF786039603B68C2
:101300003B614FF00003FB6145F26023C2F2000332
:101310001A6845F25C23C2F200031B689A4210D09F
:1013200045F25C23C2F200031B68002B09D145F291
:101330006023C2F200031A6845F25C23C2F2000384
:101340001A6045F25C23C2F200031A683B681A4433
:1013500045F26823C2F200031B689A420CD945F299
:101360006823C2F200031A6845F25C23C2F200034C
:101370001B68C3EB02033B6145F25C23C2F200032E
:101380001A6845F26823C2F200031B689A4202D32E
:101390004FF00003E9E044F66473C2F200031B68F7
:1013A000184644F6B871C2F200014FF0010200F095
:1013B000A1F944F66473C2F200031A6807F1080346
:1013C000104619464FF00102FFF7D8FB0346002BE9
:1013D000EFD045F25C23C2F200031B684FEAD3034F
:1013E000FB603B7A612B0CD144F66473C2F20003BC
:1013F0001A6807F10C03104619464FF0080200F076
:1014000079F944F66473C2F200031A6807F108031D
:10141000104619464FF00102FFF7B0FB0346002BC0
:10142000EFD03B7A612B0CD144F66473C2F2000317
:101430001A6807F11003104619464FF0040200F035
:1014400059F944F66473C2F200031A6807F10803FD
:10145000104619464FF00102FFF790FB0346002BA0
:10146000EFD03B7A612B0CD144F66473C2F20003D7
:101470001A683B69104679681A46FFF77FFB0346F6
:10148000FB6144F66473C2F200031B68184644F61D
:101490007071C2F200014FF0010200F02BF944F626
:1014A0006473C2F200031A6807F108031046194674
:1014B0004FF00102FFF762FB0346002BEFD04FF025
:1014C00001037B614FF00003FB760BE07A687B69D8
:1014D00013441A78FB7E82EA0303FB767B694FEAAA
:1014E00043037B613B6903F1FF327B69B2FBF3F39A
:1014F000002BEBD13B7AFA7E9A4227D145F25C234E
:10150000C2F200031A68FB691A4445F25C23C2F276
:1015100000031A6045F26023C2F200031A68FB69F7
:101520001A4445F26023C2F200031A6044F6647361
:10153000C2F200031B68184644F67071C2F2000143
:101540004FF0010200F0D6F8FB690EE044F6647338
:10155000C2F200031B68184644F6BC71C2F20001D7
:101560004FF0010200F0C6F815E7184607F1200712
:10157000BD4680BD80B483B000AF0346FB714EF220
:101580000013CEF2000397F907204FEA5212F979BF
:1015900001F01F014FF0010000FA01F102F16002B9
:1015A00043F8221007F10C07BD4680BC704700BF0E
:1015B00080B483B000AF78600B46FB707B6803F0AB
:1015C00070427B6823F07F4323F470034FEA431398
:1015D0001A44FB784FEA8303134403F100734FF07E
:1015E00001021A6007F10C07BD4680BC704700BFBE
:1015F00080B483B000AF78600B46FB707B6803F06B
:1016000070427B6823F07F4323F470034FEA431357
:101610001A44FB784FEA8303134403F100734FF03D
:1016200000021A6007F10C07BD4680BC704700BF7E
:1016300080B483B000AF78600B46FB707B6803F02A
:1016400070427B6823F07F4323F470034FEA431317
:101650001A44FB784FEA8303134403F100731B68B9
:10166000DBB2184607F10C07BD4680BC704700BFCF
:1016700080B584B000AFF860B9601346FB71FA68BA
:1016800048F23453C2F200039A4207D0FA6848F293
:10169000F443C2F200039A4200D000BEFB79F8681E
:1016A000B9681A4600F088F9FB681B6803F130033B
:1016B00018464FF00301FFF79BFFFB681B6803F11F
:1016C000340318464FF00201FFF792FFFB681B68D6
:1016D00003F1380318464FF00001FFF789FFFA685D
:1016E00041F65163C2F20003536207F11007BD4691
:1016F00080BD00BF80B489B000AFF860B9607A6087
:101700004FF000033B61FA6848F23453C2F2000321
:101710009A4207D0FA6848F2F443C2F200039A42B0
:1017200000D000BEBB68002B00D100BE7B68002B40
:1017300000D100BEFA6848F23453C2F200039A4264
:1017400006D0FA6848F2F443C2F200039A423DD14F
:10175000BB68002B3AD07B68002B37D0FB681B6836
:101760001B7DFB76FB685A7BFB7E42EA0303DAB201
:10177000FB685A73FB7E03F02003002B23D04FF04D
:101780001003FB617B680F2B01D87B68FB614FF076
:1017900000037B610EE0FB681B68B9683A690A4484
:1017A00012781A703B6903F101033B617B6903F115
:1017B00001037B617A69FB699A42ECD37A687B69A1
:1017C000C3EB02037B607B68002BC7D107F12407C2
:1017D000BD4680BC704700BF684620F007018D46BB
:1017E00089B500AF48F23450C2F2000000F01AFA96
:1017F000BD46BDE889408546704700BF684620F079
:1018000007018D4689B500AF48F2F440C2F20000EE
:1018100000F008FABD46BDE889408546704700BF24
:1018200080B588B000AF786039607A6848F2345388
:10183000C2F200039A4207D07A6848F2F443C2F237
:1018400000039A4200D000BE7A6848F23453C2F2D4
:1018500000039A4207D07A6848F2F443C2F20003C8
:101860009A4240F0A4807B683A689A6002F0EAF8F5
:101870007A6848F23453C2F200039A4206D145F224
:101880003013C2F200031B68FB6105E045F234131C
:10189000C2F200031B68FB61FB694FEAC3023B68AD
:1018A000B2FBF3F37B617B694FEA53033B613B6916
:1018B0004FEA9313FB60FB684FEA83133A69C3EB6B
:1018C0000203BB61FB684FEAC3137A69C3EB0202F0
:1018D000BB694FEA4303C3EB0203BA691344BB611C
:1018E000FA684FF6FF739A4200D900BEFA684FF6C5
:1018F000FF739A425BD8FB68012B31D97B681B6868
:1019000003F10C0318464FF00701FFF751FE7B6807
:101910001B68FA684FEA1222D2B21A717B681B6800
:10192000FA68D2B21A707B681B6803F10C03184680
:101930004FF00701FFF75CFE7B681B6803F1300383
:1019400018464FF00701FFF733FEBB69FF2B00D9A4
:1019500000BE7B681B68BA69D2B283F83C2026E0DF
:101960007B681B6803F10C0318464FF00701FFF773
:101970001FFE7B681B68FA684FEA1222D2B21A7106
:101980007B681B68FA68D2B21A707B681B6803F127
:101990000C0318464FF00701FFF72AFE7B681B680F
:1019A00003F1300318464FF00701FFF721FE07F15E
:1019B0002007BD4680BD00BF80B584B000AFF86091
:1019C000B9601346FB71FA6848F23453C2F200035F
:1019D0009A4207D0FA6848F2F443C2F200039A42EE
:1019E00000D000BEFA6848F23453C2F200039A42B3
:1019F00024D1FB684FF080421A60FB684FF00A0266
:101A00001A7148F20003C4F2030348F20002C4F260
:101A10000302926C42F080029A644FF00A00FFF7D2
:101A2000A9FD48F20003C4F2030348F20002C4F225
:101A30000302926C22F080029A6425E0FA6840F278
:101A40000003C4F201031360FB684FF00B021A712C
:101A500048F20003C4F2030348F20002C4F2030296
:101A6000926C42F480729A644FF00B00FFF782FD93
:101A700048F20003C4F2030348F20002C4F2030276
:101A8000926C22F480729A64FB681B684FF000022B
:101A90001A71FB681B684FF000021A72FB681B6822
:101AA00003F1080318464FF00101FFF781FDFB68C1
:101AB0001B6803F1080318464FF00201FFF778FD99
:101AC000FB681B6803F1080318464FF00001FFF79D
:101AD0006FFDFB681B6803F1100318464FF004010B
:101AE000FFF786FDFB681B6803F1100318464FF0F3
:101AF0000501FFF77DFDFB681B6803F13403184601
:101B00004FF00101FFF774FDFB681B6803F134031C
:101B100018464FF00001FFF76BFDFB681B6803F1EF
:101B2000380318464FF00101FFF762FDFB681B68A0
:101B300003F1300318464FF00501FFF759FDFB682C
:101B40001B6803F1300318464FF00601FFF750FD04
:101B5000FB681B6803F1300318464FF00701FFF7DD
:101B600047FDFB681B6803F1380318464FF003017B
:101B7000FFF73EFDFB681B684FF0000283F844202E
:101B8000FB681B684FF0000283F84820FB681B6865
:101B90004FF0000283F84C20F868B968FFF740FE68
:101BA000FB681B68FA791A73FB68BA689A60FB686D
:101BB000FA791A73FB684FF000025A61FB684FF024
:101BC00000021A61FB684FF000029A61FB684FF057
:101BD00000021A62FB684FF000025A62FB684FF085
:101BE0000002DA61FB684FF000029A62FB684FF076
:101BF0000002DA62FB684FF000021A63FB684FF0E4
:101C000000025A63FB684FF000029A63FB684FF0D2
:101C10000002DA63FB684FF000025A7307F1100705
:101C2000BD4680BD80B584B000AF78607A6848F268
:101C30003453C2F200039A4207D07A6848F2F44360
:101C4000C2F200039A4200D000BE7A6848F23453D0
:101C5000C2F200039A4207D07A6848F2F443C2F213
:101C600000039A4240F0EF807B681B681B7ADBB26E
:101C700003F00F03FB73FB7B0C2B00F2D78001A258
:101C800052F823F0B91C00202D1E0020D71C002084
:101C9000311D0020F51C00202D1E0020131D0020EA
:101CA0002D1E00202D1E00202D1E00202D1E002088
:101CB0002D1E0020F51C00207B689B6A002B00D1A4
:101CC00000BE7B689B6A002B00F0B2807B689B6A39
:101CD00078689847B7E07B685B6A002B00D100BE4C
:101CE0007B685B6A002B00F0A5807B685B6A786884
:101CF0009847A8E07B681B6A002B00D100BE7B6878
:101D00001B6A002B00F098807B681B6A78689847F4
:101D100099E07B68DB69002B00D100BE7B68DB6942
:101D2000002B00F08B807B68DB69786898478AE03D
:101D30007B681B6803F1280318464FF00001FFF78A
:101D400077FC0346002B0CD07B68DB6A002B00D1AC
:101D500000BE7B68DB6A002B03D07B68DB6A786897
:101D600098477B681B6803F1280318464FF0010170
:101D7000FFF75EFC0346002B0CD07B681B6B002B2F
:101D800000D100BE7B681B6B002B03D07B681B6BF4
:101D9000786898477B681B6803F1280318464FF062
:101DA0000201FFF745FC0346002B0CD07B685B6B00
:101DB000002B00D100BE7B685B6B002B03D07B68DF
:101DC0005B6B786898477B681B6803F128031846AB
:101DD0004FF00301FFF72CFC0346002B0CD07B686F
:101DE0009B6B002B00D100BE7B689B6B002B03D04C
:101DF0007B689B6B786898477B681B6803F12803B6
:101E000018464FF00401FFF713FC0346002B17D0D0
:101E10007B68DB6B002B00D100BE7B68DB6B002B8B
:101E200010D07B68DB6B786898470CE000BE0AE056
:101E300000BF08E000BF06E000BF04E000BF02E012
:101E400000BF00E000BF07F11007BD4680BD00BF26
:101E500080B586B000AF78607A6848F23453C2F239
:101E600000039A4207D07A6848F2F443C2F20003B2
:101E70009A4200D000BE7B681B69002B00D100BED7
:101E80007B685B69002B00D100BE7A6848F234534E
:101E9000C2F200039A4206D07A6848F2F443C2F2D2
:101EA00000039A4255D17B681B69002B51D07B6897
:101EB0005B69002B4DD07B681B681B7DFB727B68C8
:101EC0005A7BFB7A42EA0303DAB27B685A73FB7AE5
:101ED00003F02003002B29D04FF010033B617B68F7
:101EE0005A697B689B69C3EB02037B617B690F2B9B
:101EF00001D87B693B614FF00003FB6012E07B6817
:101F00001B687A6811697A6892690A4412781A70B3
:101F10007B689B6903F101027B689A61FB6803F1AE
:101F20000103FB60FA683B699A42E8D37B689A69CF
:101F30007B685B699A420CD17B684FF000025A6162
:101F40007B681B6803F1040318464FF00101FFF79B
:101F50004FFB07F11807BD4680BD00BF80B582B0BA
:101F600000AF786045F27023C2F200037A681A600D
:101F700045F26E23C2F200034FF000021A8045F2D0
:101F80006C23C2F200034FF000021A7048F2000303
:101F9000C4F20303D3F8982045F27823C2F2000379
:101FA0001A6041F6C170C2F2000045F27421C2F21B
:101FB000000101F0F7FE07F10807BD4680BD00BF34
:101FC00080B586B000AF0346FB71FB79E02B2BD1C7
:101FD00041F28833FB6048F20003C4F20303D3F8F4
:101FE000983003F480533B61FB6803F1FF33FB60DF
:101FF0003B69002B02D1FB68002BECD145F270232A
:10200000C2F200031B68002B68D045F27023C2F2B5
:1020100000031A6845F27423C2F200035B78F97971
:102020000846194690475CE0FB79E12B2DD141F23F
:102030008833BB6048F20003C4F20303D3F898303E
:1020400003F480537B61BB6803F1FF33BB607B69A2
:10205000002B02D0BB68002BECD100F07BFA45F2DC
:102060007023C2F200031B68002B39D045F27023A5
:10207000C2F200031A6845F27423C2F200035B78CF
:10208000F9790846194690472BE0FB79F12B0FD0E0
:10209000FB795BB2002B02DAFB799F2B08D9FB7925
:1020A000A02B05D0FB79B02B1BD9FB79B72B18D807
:1020B00045F27023C2F200031B68002B11D045F2D9
:1020C0007023C2F200031A6845F27423C2F20003BF
:1020D0005B78F97908461946904702E000BF00E0B6
:1020E00000BF07F11807BD4680BD00BF80B485B0B2
:1020F00000AF03463960FB71FB79062B4CD801A277
:1021000052F823F021210020352100204921002010
:10211000992100205D2100207121002085210020CF
:1021200045F20813C2F20003FB603B684FF0040263
:102130001A7038E045F20C13C2F20003FB603B68F2
:102140004FF003021A702EE045F21013C2F20003A2
:10215000FB603B684FF005021A7024E045F218134B
:10216000C2F20003FB603B684FF003021A701AE0F2
:1021700045F21C13C2F20003FB603B684FF0020201
:102180001A7010E045F22013C2F20003FB603B68B6
:102190004FF002021A7006E03B684FF000021A701E
:1021A0004FF00003FB60FB68184607F11407BD46BB
:1021B00080BC704780B588B000AF48F20003C4F21D
:1021C0000303D3F898307B604FF000033B614FF07E
:1021D00000037B614FF00003FB7748F20003C4F279
:1021E0000303D3F84C314FEA03434FEA1343BB6177
:1021F000BA694FF602039A4213D0BA694FF6030345
:102200009A420ED0BA694FF604039A4209D0BA69CD
:102210004FF607039A4204D0BA694FF606039A4272
:102220001BD148F20001C4F2030148F20003C4F2DA
:102230000303D3F898304EF20312CFF6C77203EAC5
:10224000020241F6D843C0F2300342EA0303C1F868
:1022500098304FF00003FB7775E1BA694FF605033C
:102260009A4240F016817B684FEA930303F007021D
:1022700045F27C23C2F200031A6045F27C23C2F2CD
:1022800000031B68DAB207F10B0310461946FFF78B
:102290002DFF0346FB604FF001033B611FE048F256
:1022A0000003C4F20303D3F898307B617B6923F009
:1022B0001C037B61FA683B6913441B784FEA830374
:1022C0007A6942EA03037B6148F20003C4F2030324
:1022D0007A69C3F898203B6903F101033B61FB7AFB
:1022E0001A463B699A42DAD87B684FEA531303F0E7
:1022F000070245F27C23C2F200035A6045F27C23B8
:10230000C2F200035B68DAB207F10B03104619460C
:10231000FFF7ECFE0346FB604FF001033B611FE05B
:1023200048F20003C4F20303D3F898307B617B6961
:1023300023F0E0037B61FA683B6913441B784FEAA2
:1023400043137A6942EA03037B6148F20003C4F253
:1023500003037A69C3F898203B6903F101033B61E9
:10236000FB7A1A463B699A42DAD87B684FEA5323D4
:1023700003F0070245F27C23C2F200039A6045F2A3
:102380007C23C2F200039B68DAB207F10B0310460C
:102390001946FFF7ABFE0346FB604FF001033B61BC
:1023A0001FE048F20003C4F20303D3F898307B61C6
:1023B0007B6923F460637B61FA683B6913441B7893
:1023C0004FEA43237A6942EA03037B6148F2000340
:1023D000C4F203037A69C3F898203B6903F101034F
:1023E0003B61FB7A1A463B699A42DAD87B684FEA2E
:1023F000D34303F0070245F27C23C2F20003DA6004
:1024000045F27C23C2F20003DB68DAB207F10B036A
:1024100010461946FFF76AFE0346FB604FF00103C2
:102420003B611FE048F20003C4F20303D3F8983085
:102430007B617B6923F460137B61FA683B69134419
:102440001B784FEAC3437A6942EA03037B6148F28F
:102450000003C4F203037A69C3F898203B6903F1CF
:1024600001033B61FB7A1A463B699A42DAD848F28B
:102470000003C4F2030348F20002C4F20302D2F8DC
:10248000982042F48052C3F898204FF00003FB7765
:1024900059E0BA694FF608039A4254D17B684FEA73
:1024A000930303F0070245F27C23C2F200031A6093
:1024B0007B684FEA531303F0070245F27C23C2F214
:1024C00000035A607B684FEA532303F0070245F28A
:1024D0007C23C2F200039A607B684FEAD34303F087
:1024E000070245F27C23C2F20003DA604FF00103D9
:1024F0003B6125E03A6945F27C23C2F2000353F8C0
:10250000222045F27C23C2F200031B689A420FD1BD
:1025100045F27C23C2F200031B68052B08D83A69F8
:1025200045F27C23C2F2000353F82230052B03D975
:102530004FF00103FB7706E03B6903F101033B61C8
:102540003B69032BD6D9FB7F184607F12007BD4610
:1025500080BD00BF80B586B000AF4FF00003FB73B5
:102560004FF000033B6148F20003C4F20303D3F8C9
:102570004C314FEA03434FEA13437B617A694FF6CC
:1025800002039A4213D07A694FF603039A420ED09F
:102590007A694FF604039A4209D07A694FF6070325
:1025A0009A4204D07A694FF606039A420BD148F258
:1025B0000003C4F2030345F27822C2F2000212685B
:1025C000C3F89820EBE07A694FF605039A4240F091
:1025D000E68045F27C23C2F200031B68DAB207F101
:1025E000070310461946FFF781FD0346BB60FB79E0
:1025F000FB7321E048F20003C4F20303D3F89830E0
:102600003B613B6923F01C033B61FB7B03F1FF3221
:10261000BB6813441B784FEA83033A6942EA030319
:102620003B6148F20003C4F203033A69C3F89820FF
:10263000FB7B03F1FF33FB73FB7B002BDAD145F20D
:102640007C23C2F200035B68DAB207F1070310468D
:102650001946FFF74BFD0346BB60FB79FB7321E096
:1026600048F20003C4F20303D3F898303B613B699E
:1026700023F0E0033B61FB7B03F1FF32BB681344B3
:102680001B784FEA43133A6942EA03033B6148F27D
:102690000003C4F203033A69C3F89820FB7B03F1FB
:1026A000FF33FB73FB7B002BDAD145F27C23C2F2B4
:1026B00000039B68DAB207F1070310461946FFF7DB
:1026C00015FD0346BB60FB79FB7321E048F2000374
:1026D000C4F20303D3F898303B613B6923F4606391
:1026E0003B61FB7B03F1FF32BB6813441B784FEA6D
:1026F00043233A6942EA03033B6148F20003C4F210
:1027000003033A69C3F89820FB7B03F1FF33FB73A3
:10271000FB7B002BDAD145F27C23C2F20003DB689D
:10272000DAB207F1070310461946FFF7DFFC03464C
:10273000BB60FB79FB7321E048F20003C4F20303A2
:10274000D3F898303B613B6923F460133B61FB7B1A
:1027500003F1FF32BB6813441B784FEAC3433A6965
:1027600042EA03033B6148F20003C4F203033A69FF
:10277000C3F89820FB7B03F1FF33FB73FB7B002B3B
:10278000DAD148F20003C4F2030348F20002C4F2B3
:102790000302D2F8982022F48052C3F8982007F15F
:1027A0001807BD4680BD00BF80B586B000AF786019
:1027B0004FF000033B6145F29C23C2F200031B78FB
:1027C000002B0CBF00230123DAB245F22813C2F21A
:1027D00000031B78012B14BF00230123DBB202EAA4
:1027E0000303DBB2002B1CD041F28833FB6048F2BC
:1027F0000003C4F20303D3F8983003F480537B61E1
:10280000FB6803F1FF33FB607B69002B02D1FB689F
:10281000002BECD145F22813C2F200034FF0000266
:102820001A7045F29423C2F200031B68002B08D0F3
:1028300045F29423C2F200031B6878689847034668
:102840003B613B69184607F11807BD4680BD00BFD4
:1028500080B582B000AF78600B467B8045F29C2348
:10286000C2F200031B78002B14D048F20003C4F21C
:10287000030345F22412C2F200021268DA6048F241
:102880000003C4F2030345F29822C2F20002126868
:10289000C3F89C2045F29023C2F200031B68002B72
:1028A0000AD045F29023C2F200031B687A6802F155
:1028B000010212781046984707F10807BD4680BD0F
:1028C00080B588B002AF0346B9607A60FB734FF001
:1028D0000003BB754FF00003FB75FB7B022B03D19C
:1028E0004FF0010000F062F945F29C23C2F20003B0
:1028F000FA7B1A70FB7B002B55D048F20003C4F220
:102900000303DA6845F22413C2F200031A6048F2A6
:102910000003C4F20303D3F89C2045F29823C2F2CB
:1029200000031A6048F20003C4F2030345F22412C4
:10293000C2F20002126842F4FF52DA6048F2000369
:10294000C4F2030348F20002C4F20302D2F89C204E
:1029500022F4E072C3F89C2048F20003C4F203039F
:1029600048F20002C4F20302D2F89C2042F4007242
:10297000C3F89C2048F20003C4F2030348F20002AB
:10298000C4F20302D2F89C2042F48062C3F89C2077
:10299000FFF710FC0346BB7545F22813C2F2000393
:1029A0004FF001021A70BB7D002B2AD100F09AF97A
:1029B0004FF015033B75FB7B7B7545F29023C2F20C
:1029C00000037A681A6045F29423C2F20003BA68E1
:1029D0001A6007F1140242F2A973C2F200030093D5
:1029E00042F65103C2F20003019310464FF0020178
:1029F00045F28C22C2F200024FF0020301F046FBC6
:102A000002E06FF03603FB75FB7D184607F11807EF
:102A1000BD4680BD80B58AB004AF03463960FB7106
:102A20004FF000033B754FF000037B75FB79022BE1
:102A300003D14FF0010000F0B9F8FB79002B4ED024
:102A400048F20003C4F20303DA6845F22413C2F229
:102A500000031A6048F20003C4F20303D3F89C2079
:102A600045F29823C2F200031A6048F20003C4F250
:102A7000030345F22412C2F20002126842F4FF522C
:102A8000DA6048F20003C4F2030348F20002C4F221
:102A90000302D2F89C2022F4E072C3F89C2048F292
:102AA0000003C4F2030348F20002C4F20302D2F8A6
:102AB0009C2042F40072C3F89C2048F20003C4F248
:102AC000030348F20002C4F20302D2F89C2042F44D
:102AD0008062C3F89C20FFF76DFB03467B757B7D0E
:102AE000002B57D14FF014033B73FB797B733B688A
:102AF000DBB2BB733B684FEA1323DBB2FB733B686B
:102B00004FEA1343DBB23B743B684FEA1363DBB21B
:102B10007B7400F0E7F807F10C0207F1080300935B
:102B20004FF00203019342F6B543C2F20003029351
:102B300010464FF006014FF000024FF0000301F085
:102B4000CFF900F0EBF80346FB82FB8A022B05D19C
:102B50003B7A142B02D17B7A3B7502E06FF037038E
:102B60003B75FB79002B19D048F20003C4F2030334
:102B700045F22412C2F200021268DA6048F2000341
:102B8000C4F2030345F29822C2F200021268C3F8AD
:102B90009C2004E06FF036033B7500E000BF3B7DF6
:102BA000184607F11807BD4680BD00BF80B58AB042
:102BB00004AF0346FB714FF000037B7548F200033E
:102BC000C4F20303D3F84C214FF602039A4200D11A
:102BD00000BE48F20003C4F20303D3F84C214FF6C1
:102BE0000203C0F201039A4200D100BE48F2000382
:102BF000C4F20303D3F84C214FF60203C0F20203E0
:102C00009A4200D100BEFB7903F03003002B0CD0B8
:102C100048F20003C4F20303D3F84C214FF6020339
:102C2000C0F202039A4200D100BEFB7903F0010317
:102C3000DBB2002B03D0FFF7BDFA03467B757B7D2B
:102C4000002B2ED100F04EF84FF017033B74FB79A8
:102C50007B7407F1100207F10C0300934FF002039D
:102C6000019342F6B543C2F20003029310464FF0BF
:102C700002014FF000024FF0000301F031F900F0C3
:102C80004DF80346FB82FB8A022B06D13B7B172BB8
:102C900003D17B7B3B7500BF06E06FF037033B75CC
:102CA00002E06FF036033B753B7D184607F11807CD
:102CB000BD4680BD80B483B000AF78600B467B809A
:102CC00045F26C23C2F200034FF000021A7045F285
:102CD0006E23C2F200037A881A8007F10C07BD4602
:102CE00080BC704780B400AF45F26C23C2F2000391
:102CF0001B78DBB2002BF7D145F26C23C2F2000344
:102D00004FF001021A7045F26E23C2F200034FF039
:102D100000021A80BD4680BC704700BF80B400AF7F
:102D200045F26C23C2F200031B78DBB2002BF7D113
:102D300045F26E23C2F200031B889BB21846BD46C3
:102D400080BC704780B483B000AF0346FB714EF285
:102D50000013CEF2000397F907204FEA5212F979D7
:102D600001F01F014FF0010000FA01F143F82210B9
:102D700007F10C07BD4680BC704700BF80B483B02C
:102D800000AF0346FB714EF20013CEF2000397F939
:102D900007204FEA5212F97901F01F014FF00100AC
:102DA00000FA01F102F1200243F8221007F10C07AA
:102DB000BD4680BC704700BF80B483B000AF0346FF
:102DC000FB714EF20013CEF2000397F907204FEA91
:102DD0005212F97901F01F014FF0010000FA01F1E0
:102DE00002F1600243F8221007F10C07BD4680BCD7
:102DF000704700BF80B584B000AF78607A6848F251
:102E0000F853C2F200039A4207D07A6848F274532A
:102E1000C2F200039A4200D000BE7B681B795BB20D
:102E20001846FFF7ABFF78684FF000014FF08402BF
:102E300001F044FE7B684FF001025A624FF000033C
:102E4000FB810DE0FB897A6803F106034FEAC303B7
:102E500013444FF0FF325A60FB8903F10103FB81F9
:102E6000FB89072BEED97A6848F2F853C2F20003C7
:102E70009A4226D17A6841F20003C4F2000313603B
:102E80007B684FF002021A7148F20003C4F2030398
:102E900048F20002C4F20302926C42F400729A6497
:102EA0004FF00200FFF788FF48F20003C4F203036B
:102EB00048F20002C4F20302926C22F400729A6497
:102EC00025E07A6841F20003C4F2010313607B68D5
:102ED0004FF003021A7148F20003C4F2030348F2F0
:102EE0000002C4F20302926C42F480629A644FF0D2
:102EF0000300FFF761FF48F20003C4F2030348F246
:102F00000002C4F20302926C22F480629A647B682D
:102F10001B687A681268126822F000421A6007F192
:102F20001007BD4680BD00BF80B58AB000AF786095
:102F30007B681B681B68FB607B681B689B693B6147
:102F40007B681B685B687B617B681B689B6ABB61F5
:102F50007B681B681B6BFB617B681B685B6B3B6260
:102F60007B681B68DB697B627A6848F2F853C2F2BF
:102F700000039A422ED17A6841F20003C4F20003A2
:102F800013607B684FF002021A7148F20003C4F22A
:102F9000030348F20002C4F20302926C42F400728E
:102FA0009A644FF00200FFF707FF48F20003C4F2F3
:102FB000030348F20002C4F20302926C22F400728E
:102FC0009A647B681B687A681268126822F0004273
:102FD0001A602DE07A6841F20003C4F20103136025
:102FE0007B684FF003021A7148F20003C4F2030336
:102FF00048F20002C4F20302926C42F480629A64C6
:103000004FF00300FFF7D8FE48F20003C4F20303B9
:1030100048F20002C4F20302926C22F480629A64C5
:103020007B681B687A681268126822F000421A6096
:10303000FB6823F00103FB607B681B68FA681A6079
:103040007B681B683A699A617B681B687A695A6079
:103050007B681B687A681268126842F001021A6085
:103060007B681B68BA699A627B681B68FA691A6395
:103070007B681B683A6A5A637B681B687A6ADA6104
:1030800007F12807BD4680BD80B586B000AFF86067
:103090007A603B600B46FB72FA6848F2F853C2F262
:1030A00000039A4207D0FA6848F27453C2F2000350
:1030B0009A4200D000BEFB7A072B00D900BE97F8D9
:1030C0002030202B00D900BE3B68012B00D800BE69
:1030D0003B68B3F5007F00D900BE3B6803F00103F5
:1030E000002B00D000BEFB681B795BB21846FFF7CF
:1030F00045FEFB684FF0000283F88020FB681B68E8
:10310000FA681268126822F001021A60FB681B68F4
:10311000FA681268126842F002021A60FB681B68C3
:10312000FA681268126842F001021A60FB7A072BF3
:1031300047D87B68002B0BD07B68B3F1007F07D0AA
:103140007B68B3F1807F03D07B68B3F1407F0FD100
:10315000FA7A796840F20213C3F2004341EA0303AA
:10316000F96802F106024FEAC2020A4453600EE017
:10317000FA7A796840F20213C3F2000341EA0303CA
:10318000F96802F106024FEAC2020A445360FB7A70
:10319000FA6803F106034FEAC303134497F82020AB
:1031A0001A723B684FEA530303F1FF337B61FB7AEA
:1031B0007A69D2B2F96803F106034FEAC3030B44FC
:1031C0005A72FB681B795BB21846FFF7BBFD07F12B
:1031D0001807BD4680BD00BF80B584B000AF7860E1
:1031E0000B46FB707A6848F2F853C2F200039A4229
:1031F00007D07A6848F27453C2F200039A4200D0B2
:1032000000BE7B681B681B6803F00203002B00D123
:1032100000BEFB787A6803F106034FEAC303134448
:103220005B68B3F1FF3F00D100BE7B681B795BB2E6
:103230001846FFF7A3FD7B681B689B6803F0040337
:10324000FB60FB68002B02D07868FFF76DFE7B689F
:103250001B687A681268126822F001021A607B68A3
:103260001A68FB78796803F106034FEAC3030B443D
:103270005B6813607B681A68FB78796803F1060362
:103280004FEAC3030B445B7A93617B681A68FB784F
:10329000796803F106034FEAC3030B441B7A5360BA
:1032A0007B681B687A681268126842F001021A6033
:1032B0007B681B687A681268D169FA784FF0010060
:1032C00000FA02F241EA0202DA617B681B795BB222
:1032D0001846FFF737FD07F11007BD4680BD00BF58
:1032E00080B584B000AF78600B46FB707A6848F216
:1032F000F853C2F200039A4207D07A6848F2745336
:10330000C2F200039A4200D000BE7B681B681B68B3
:1033100003F00203002B00D100BE7B681B795BB277
:103320001846FFF72BFD7B681B689B6803F00403BE
:10333000FB60FB68002B02D07868FFF7F5FD7B6827
:103340001B687A681268D169FA784FF0010000FAB8
:1033500002F26FEA020201EA0202DA617B681B797B
:103360005BB21846FFF7EEFC07F11007BD4680BDC3
:1033700080B58EB000AFF860B9603B601346FB804B
:103380004FF000037B834FF00003FB84FA6848F2A0
:10339000F853C2F200039A4207D0FA6848F2745315
:1033A000C2F200039A4200D000BEFB681B681B6893
:1033B00003F00203002B00D100BEFA88B7F84030BA
:1033C0001344FB86FB8E002B03D14FF001033B62BD
:1033D00001E0FB8E3B62FB681B68FA681268D26AE8
:1033E00042F00C02DA62FB681B689B6803F004037E
:1033F000FB62FB6A002B02D0F868FFF795FDFB68C3
:103400001B68FA681268126822F001021A60FB68F1
:103410001968FB681B681B6840F2FF02CFF6007258
:1034200003EA02023B6A4FEA03204FF60073C0F240
:10343000FF0300EA030342EA03030B60FB681B6817
:103440004FF008025A60FB681B68FA68126812683D
:1034500042F001021A60FB681B689B6803F040039E
:103460003B6309E0FB681B681B697B61FB681B68A9
:103470009B6803F040033B633B6B002BF2D04FF0A3
:103480000003BB834FF00003FB83BA8BFB889A4297
:103490000FD2FB681B68B98BBA680A4412785A616C
:1034A000BB8B03F10103BB83FB8C03F10103FB84A2
:1034B0006AE0BA8BFB8E9A4266D2FB681B684FF0BB
:1034C00000025A61BB8B03F10103BB83FB8C03F148
:1034D0000103FB8458E0FB681B689B6803F0400312
:1034E0003B633B6B002B1ED1FB681B681B697B6138
:1034F0007A8BFB889A420ED3FA8BB7F840309A4207
:1035000005D2FA8B3B6813447A69D2B21A70FB8BEE
:1035100003F10103FB837B8B03F101037B83FB8CB2
:1035200003F1FF33FB84FB681B689B6803F4807323
:10353000BB62BB6A002B27D1FB8C032B24D8BA8B30
:10354000FB889A420FD2FB681B68B98BBA680A44A1
:1035500012785A61BB8B03F10103BB83FB8C03F12F
:103560000103FB8410E0BA8BFB8E9A420CD2FB68FD
:103570001B684FF000025A61BB8B03F10103BB8350
:10358000FB8C03F10103FB847A8BFB8E9A42A2D35E
:1035900007F13807BD4680BD80B485B000AF7860C4
:1035A0004FF00003FB600EE07B681B687A6891684F
:1035B0007A6812690A4412785A617B681B6903F1C0
:1035C00001027B681A617B681B689B6803F4807347
:1035D000002B05D17B681A697B68DB689A42E3D3CC
:1035E0007B681A697B68DB689A421CD30EE07B68B3
:1035F0001B687A6851697A68D2690A4412785A61FC
:103600007B68DB6903F101027B68DA617B681B6818
:103610009B6803F48073002B05D17B68DA697B68B3
:103620009B699A42E3D37B685B6A002B1FD07B685F
:103630001A697B68DB689A4219D37B68DA697B6810
:103640009B699A4213D308E07B681B684FF0000225
:103650005A61FB6803F10103FB607B681B689B6890
:1036600003F48073002B02D1FB681F2BECD907F108
:103670001407BD4680BC704780B584B000AF786049
:103680007B6893F88030022B15D10CE07B681B68B7
:103690001B69FB607B685B6F002B04D07B685B6FF2
:1036A000FA68104698477B681B689B6803F04003E4
:1036B000002BEBD032E07B6893F88030012B25D1D2
:1036C00017E07B681B681B69FB607B681A6B7B6873
:1036D000DB6A9A4207D27B689A6A7B681B6B134449
:1036E000FA68D2B21A707B681B6B03F101027B6827
:1036F0001A637B681B689B6803F04003002BE0D0D3
:103700000CE07B681B681B69FB6000E000BF7B6806
:103710001B689B6803F04003002BF2D007F11007F1
:10372000BD4680BD80B586B000AF78607B681B6801
:1037300003F120033B617A6848F2F853C2F20003B8
:103740009A4207D07A6848F27453C2F200039A4250
:1037500000D000BE3B691B6803F00203002B52D06F
:103760007B6893F88030022B15D10CE07B681B68D6
:103770001B69FB607B685B6F002B04D07B685B6F11
:10378000FA68104698477B681B689B6803F0400303
:10379000002BEBD032E07B6893F88030012B25D1F1
:1037A00017E07B681B681B69FB607B681A6B7B6892
:1037B000DB6A9A4207D27B689A6A7B681B6B134468
:1037C000FA68D2B21A707B681B6B03F101027B6846
:1037D0001A637B681B689B6803F04003002BE0D0F2
:1037E0000CE07B681B681B69FB6000E000BF7B6826
:1037F0001B689B6803F04003002BF2D07B681B68BA
:103800004FF00202DA603B691B6803F00103DBB290
:10381000002B12D07B6893F88030022B05D17B6897
:103820001B687A68926F5A6102E07868FFF7B4FE0D
:103830007B681B684FF00102DA603B691B6803F08C
:103840001003002B23D07868FFF716FF7B681B6AF4
:10385000002B0BD07B681B6A7A68916A7A68126BBE
:103860000846114698477868FFF796FE7B684FF048
:1038700001025A627B681B687A681268926A22F0B9
:1038800010029A627B681B684FF01002DA603B6995
:103890001B6803F00403002B0FD07B681B687A6859
:1038A0001268D26A42F00402DA627868FFF73CFBE1
:1038B0007B681B684FF00402DA603B691B6803F009
:1038C0000803002B31D07B681B687A681268D26AC3
:1038D00042F00802DA627B6893F88030022B13D141
:1038E0007B681A687B681B68196840F2FF03CFF693
:1038F000007301EA030343F4807313607B681B6861
:103900007A68926F5A610BE07B6893F88030012BE4
:1039100006D17B684FF000021A617868FFF73CFE21
:103920007B681B684FF00802DA603B691B6803F094
:103930002003002B49D07868FFF79EFE7B681B6B45
:103940007B617B681B6A002B1CD07B684FF00002F8
:103950005A627B684FF000025A617B684FF00002A8
:103960009A617B684FF00002DA617B681B684FF058
:103970001002DA607B681B687A681268926A42F00B
:1039800010029A627B684FF000021A617B681B6824
:103990007A681268D26A42F00C02DA627868FFF73D
:1039A000FBFD7B684FF000021A637B68DB6F002B26
:1039B00006D07B68DB6F7A68926A1046796998470F
:1039C0007B681B684FF02002DA6007F11807BD46DC
:1039D00080BD00BF684620F007018D4689B500AF65
:1039E00048F2F850C2F20000FFF79CFEBD46BDE869
:1039F00089408546704700BF684620F007018D4624
:103A000089B500AF48F27450C2F20000FFF78AFE99
:103A1000BD46BDE889408546704700BF80B500AF10
:103A200000F036F94EF60053CEF200034EF6005287
:103A3000CEF20002526942F400725A61FCF7FAFCBD
:103A400080BD00BF80B588B000AF48F20003C4F26B
:103A50000303D3F8983003F08063FB60FB68002B0E
:103A600040F08B8048F20003C4F20303D3F898308F
:103A700003F480537B617B69002B3FD145F22C130B
:103A8000C2F200034FF28002C0F2FA221A6045F23D
:103A90003013C2F200034FF28002C0F2FA221A6021
:103AA00045F23413C2F200034FF28002C0F2FA2250
:103AB0001A6045F23813C2F200034BF62042C0F2FE
:103AC000BE021A6045F23C13C2F200034FF28002BC
:103AD000C0F2FA221A6045F24013C2F200034FF21C
:103AE0008002C0F2FA221A6045F24413C2F20003C7
:103AF0004FF28002C0F2FA221A6045E044F6C87321
:103B0000C2F2000307F1040293E8030082E8030015
:103B100048F20003C4F20303D3F89C304FEA931336
:103B200003F00703BB61BB6907F12002134413F8DC
:103B30001C3CFB77FB7F012B0BD0022B0ED0002B04
:103B400014D100F025F803463B61386900F042F8D3
:103B50001AE04FF4004000F03DF815E044F2402038
:103B6000C0F20F0000F036F800BF0DE044F2402034
:103B7000C0F20F0000F02EF806E000F009F803464E
:103B80003B61386900F026F807F12007BD4680BD8B
:103B900080B483B000AF48F20003C4F20303D3F84B
:103BA000503103F004033B603B68002B05D147F61E
:103BB0004003C0F27D137B6004E04FF28003C0F24B
:103BC000FA237B607B68184607F10C07BD4680BC72
:103BD000704700BF80B483B000AF786045F22C130B
:103BE000C2F200037A681A6045F23013C2F2000391
:103BF0007A681A6045F23413C2F200037A681A60D8
:103C000045F23813C2F200034BF62042C0F2BE0266
:103C10001A6045F23C13C2F200037A681A6045F25A
:103C20004013C2F200037A681A6045F24413C2F2EC
:103C300000037A681A6007F10C07BD4680BC704724
:103C400080B483B000AF48F20003C4F20303D3F89A
:103C50004C317B607A684FF602039A4206D04FF6E9
:103C60000203C0F201039A4204D007E04FF00103BF
:103C70003B6006E04FF002033B6002E04FF00003C0
:103C80003B603B68184607F10C07BD4680BC704797
:103C900080B582B000AFFFF7D3FF03467B607B683F
:103CA000012B01D100F004F807F10807BD4680BDE3
:103CB00080B400AF48F20003C4F2030348F20002EC
:103CC000C4F20302D2F8982042F48072C3F898201C
:103CD00048F20003C4F2030348F20002C4F20302F4
:103CE000D2F8982022F08062C3F89820BD4680BCAC
:103CF000704700BF80B483B000AF0346FB714EF243
:103D00000013CEF2000397F907204FEA5212F97917
:103D100001F01F014FF0010000FA01F143F82210F9
:103D200007F10C07BD4680BC704700BF80B483B06C
:103D300000AF0346FB714EF20013CEF2000397F979
:103D400007204FEA5212F97901F01F014FF00100EC
:103D500000FA01F102F1200243F8221007F10C07EA
:103D6000BD4680BC704700BF80B483B000AF03463F
:103D7000FB714EF20013CEF2000397F907204FEAD1
:103D80005212F97901F01F014FF0010000FA01F120
:103D900002F1600243F8221007F10C07BD4680BC17
:103DA000704700BF80B582B000AF786039604FF0D7
:103DB0001300FFF7BBFF46F20003C4F201034FF00C
:103DC00000029A604FF01300FFF7CEFF45F2C423C4
:103DD000C2F200037A681A6045F2C023C2F20003FF
:103DE0004FF000021A7045F29D23C2F200034FF01B
:103DF00000021A7045F2A023C2F200034FF0000245
:103E00001A6045F2A423C2F200034FF000021A80A8
:103E100045F2A823C2F200034FF000021A6045F2F7
:103E2000AC23C2F200034FF000021A6045F2B02347
:103E3000C2F200033A681A6045F2B423C2F20003EA
:103E40004FF000021A8045F2B623C2F200034FF091
:103E500000021A8045F2B823C2F200034FF00002BC
:103E60001A6045F2C123C2F200034FF000021A703B
:103E700046F20003C4F2010346F20002C4F201025A
:103E8000126822F020021A6046F20003C4F2010315
:103E900046F20002C4F20102126842F010021A60F7
:103EA00046F20003C4F2010346F20002C4F201022A
:103EB000926822F001029A6046F20003C4F2010304
:103EC00046F20002C4F20102926842F002029A60D5
:103ED0004FF01300FFF70EFF07F10807BD4680BD46
:103EE00080B586B000AFF8607A603B600B467B819E
:103EF0007B89002B00D100BE4FF01300FFF716FFA7
:103F000046F20003C4F201034FF000029A604FF042
:103F10001300FFF729FF00F0BFFC45F2C023C2F2F7
:103F200000034FF001021A70FB681A7845F29D23D6
:103F3000C2F200031A7045F2A023C2F20003FA682D
:103F40001A6045F2A423C2F200037A891A8045F26E
:103F5000A823C2F200037A681A6045F2AC23C2F2C9
:103F600000033A681A6045F2B023C2F200033A6ACD
:103F70001A6045F2B423C2F20003BA8C1A8045F2EB
:103F8000B623C2F200034FF000021A8045F2BC23B0
:103F9000C2F200034FF000021A6045F2B823C2F2E9
:103FA0000003BA6A1A6046F20003C4F2010346F243
:103FB0000002C4F20102926842F002029A6045F2E5
:103FC0009D23C2F200031B78DBB2184600F094FC7C
:103FD000FB6803F101027B8903F1FF3310461946A8
:103FE00000F0B2FC03467B617B6903F101037B6156
:103FF0007A897B699A4223D945F2A423C2F200034D
:104000001B889AB27B699BB2C3EB02039AB245F25A
:10401000A423C2F200031A8045F2A023C2F20003D7
:104020001A687B691A4445F2A023C2F200031A60A1
:1040300045F2C123C2F200034FF001021A701CE0E6
:1040400045F2A423C2F200034FF000021A8045F2A9
:10405000AC23C2F200031B68002B07D045F2C1233A
:10406000C2F200034FF002021A7006E045F2C123CB
:10407000C2F200034FF003021A704FF01300FFF773
:1040800039FE07F11807BD4680BD00BF80B586B078
:1040900000AFF8607A600A467A817B804FF00003B7
:1040A000FB757B89002B00D100BE4FF01300FFF79A
:1040B0003DFE46F20003C4F201034FF000029A6095
:1040C0004FF01300FFF750FE00F0E6FB45F2C0236F
:1040D000C2F200034FF001021A70FB681A7845F231
:1040E0009D23C2F200031A7045F2A023C2F200031E
:1040F000FA681A6045F2A423C2F200037A891A8092
:1041000045F2A823C2F200034FF000021A6045F204
:10411000AC23C2F200034FF000021A6045F2B02354
:10412000C2F200037A681A6045F2B423C2F20003B7
:104130007A881A8045F2B623C2F200034FF00002DB
:104140001A8045F2BC23C2F200033A6A1A6045F2B3
:10415000B823C2F200037A6A1A6045F29D23C2F2C4
:1041600000031B78DBB2184600F0C6FBFB6803F1C6
:1041700001027B8903F1FF331046194600F0E4FB8E
:1041800003463B613B6903F101033B617A893B696B
:104190009A4226D945F2A423C2F200031B889AB2A0
:1041A0003B699BB2C3EB02039AB245F2A423C2F26D
:1041B00000031A8045F2A023C2F200031A683B698B
:1041C0001A4445F2A023C2F200031A6045F2C1234B
:1041D000C2F200034FF001021A704FF00303FB75A7
:1041E00010E045F2A423C2F200034FF000021A804F
:1041F00045F2C123C2F200034FF005021A704FF0DE
:104200000303FB7546F20003C4F2010346F2000209
:10421000C4F201029168FA7D41EA02029A604FF00D
:104220001300FFF767FD07F11807BD4680BD00BF0B
:1042300080B582B000AF46F20003C4F201035B68B0
:104240007B7146F20003C4F201039B68DAB27B790A
:1042500002EA03037B717B7903F00203FB71FB79B4
:10426000002B01D000F070F97B7903F00103BB71E2
:10427000BB79002B01D000F005F807F10807BD4617
:1042800080BD00BF80B584B000AF45F2C123C2F24B
:1042900000031B78022B67D0052B00F0B680012BA2
:1042A00040F0368145F2A423C2F200031B889BB282
:1042B000002B55D045F2A023C2F200031A6845F244
:1042C000A423C2F200031B889BB21046194600F0DB
:1042D0003BFB03467B6045F2A423C2F200031B882C
:1042E0009BB21A467B689A421CD945F2A423C2F2BB
:1042F00000031B889AB27B689BB2C3EB02039AB29D
:1043000045F2A423C2F200031A8045F2A023C2F2B0
:1043100000031A687B681A4445F2A023C2F2000326
:104320001A600CE145F2A423C2F200034FF0000230
:104330001A8045F2AC23C2F200031B68002B07D0A1
:1043400045F2C123C2F200034FF002021A70F6E0F8
:1043500045F2C123C2F200034FF003021A70EEE0EF
:1043600000BE00F099FAEAE045F2AC23C2F2000385
:104370001B68002B45D045F2A823C2F200031A683F
:1043800045F2AC23C2F200031B681046194600F048
:10439000DBFA0346BB6045F2AC23C2F200031B68A4
:1043A000BA689A4219D245F2AC23C2F200031A68E5
:1043B000BB68C3EB020245F2AC23C2F200031A60F1
:1043C00045F2A823C2F200031A68BB681A4445F2FA
:1043D000A823C2F200031A60B1E046F20003C4F25F
:1043E000010346F20002C4F20102926822F00102C7
:1043F0009A6045F2C123C2F200034FF003021A7023
:104400009DE000BE00F048FA99E045F2AC23C2F20C
:1044100000031B68002B36D145F2BC23C2F2000317
:104420001B68002B2AD045F2BC23C2F200031B6894
:1044300045F2A820C2F200009847024645F2AC239C
:10444000C2F200031A6045F2AC23C2F200031B68FB
:10445000002B17D146F20003C4F2010346F200021A
:10446000C4F20102926822F001029A6045F2C1236F
:10447000C2F200034FF003021A7004E000BE00F025
:104480000BFA00E000BF45F2AC23C2F200031B6848
:10449000002B13D146F20003C4F2010346F20002DE
:1044A000C4F20102926822F001029A6045F2C1232F
:1044B000C2F200034FF003021A7040E045F2A82355
:1044C000C2F200031A6845F2AC23C2F200031B6873
:1044D0001046194600F038FA0346FB6045F2AC235B
:1044E000C2F200031A68FB68C3EB020245F2AC2378
:1044F000C2F200031A6045F2A823C2F200031A6850
:10450000FB681A4445F2A823C2F200031A6016E0C1
:1045100046F20003C4F2010346F20002C4F20102B3
:10452000926822F001029A604FF0000000F088F9D2
:1045300045F2C123C2F200034FF000021A7007F1E6
:104540001007BD4680BD00BF80B584B000AF46F205
:104550000003C4F201031B69BB80BB8823F4FE4344
:1045600023F0FF03FB80BB887B7245F2C123C2F2BC
:1045700000031B78052B00F24B8101A252F823F0B7
:1045800099450020FD470020FD47002029460020D6
:10459000A7460020BF470020FB88002B00F0448185
:1045A0007B7AF12B06D07B7ABB72BB7A184600F07F
:1045B0000BFA40E145F2B623C2F200034FF00002CD
:1045C0001A8045F2B023C2F200031A6845F2B623FE
:1045D000C2F200031B889BB213447A7A1A7045F228
:1045E000B623C2F200031B889BB203F101039AB207
:1045F00045F2B623C2F200031A8045F2B023C2F29C
:1046000000031A6845F2B623C2F200031B889BB26E
:1046100013444FF000021A7045F2C123C2F20003A6
:104620004FF004021A7006E1FB88002B00F0FE80B8
:104630007B7AFB7245F29D23C2F200031B78DBB24A
:10464000FA7A9A422AD145F2B623C2F200034FF019
:1046500000021A8045F2B023C2F200031A6845F244
:10466000B623C2F200031B889BB21344FA7A1A7075
:1046700045F2B623C2F200031B889BB203F101038B
:104680009AB245F2B623C2F200031A8045F2C12362
:10469000C2F200034FF004021A70CCE0FB7A184615
:1046A00000F092F9C7E0FB88002B06D07B7A3B73C1
:1046B0003B7B184600F088F9BDE045F2B023C2F21A
:1046C00000031A6845F2B623C2F200031B889BB2AE
:1046D00003F1FF3313441B78F12B27D145F2B023AC
:1046E000C2F200031A6845F2B623C2F200031B8827
:1046F0009BB213447A7A1A7045F2B023C2F20003D7
:104700001A6845F2B623C2F200031B889BB203F17C
:10471000FF3313441B78184600F056F945F2C123C5
:10472000C2F200034FF000021A7084E045F2B62393
:10473000C2F200031B889AB245F2B423C2F200030E
:104740001B889A421DD27B7A7B7345F2B023C2F25A
:1047500000031A6845F2B623C2F200031B889BB21D
:1047600013447A7B1A7045F2B623C2F200031B8809
:104770009BB203F101039AB245F2B623C2F20003E1
:104780001A8045F2B623C2F200031B889AB245F2A2
:10479000B423C2F200031B889A4249D145F2B623E2
:1047A000C2F200031B889BB2184600F049F845F29C
:1047B000C123C2F200034FF000021A703BE0FB88F5
:1047C000002B14D145F2B023C2F200031B6803F1A1
:1047D00001037A7A1A704FF0020000F031F845F2C6
:1047E000C123C2F200034FF000021A7023E07B7A6B
:1047F000BB73BB7B184600F0E7F81CE0FB88002B7E
:1048000018D07B7AFB73FB7B184600F0DDF812E0D2
:104810004FF0000000F014F845F2C123C2F200038B
:104820004FF000021A7006E000BF04E000BF02E093
:1048300000BF00E000BF07F11007BD4680BD00BF0C
:1048400080B582B000AF0346FB8045F2B823C2F2C8
:1048500000031B68002B1BD045F2B823C2F20003F3
:104860001A6845F2B023C2F200031968FB880846B3
:104870001946904745F2B823C2F200034FF00002F8
:104880001A6045F2C023C2F200034FF000021A7012
:1048900007F10807BD4680BD80B582B000AF45F284
:1048A000C023C2F200031B78DBB2002B1FD045F2FD
:1048B000B623C2F200031B889BB21846FFF7C0FF65
:1048C00046F20003C4F2010346F20002C4F2010200
:1048D000126842F001021A6046F20003C4F20103BA
:1048E0001B6803F001037B607B68002BF4D107F1A8
:1048F0000807BD4680BD00BF80B485B000AF034649
:10490000FB7146F20003C4F2010346F20002C4F256
:104910000102126822F004021A6046F20003C4F297
:1049200001035B6803F00103FB60FB68002BF4D01C
:1049300046F20003C4F20103FA799A6107F1140701
:10494000BD4680BC704700BF80B485B000AF7860C2
:10495000396046F20003C4F2010346F20002C4F2D9
:104960000102126822F004021A604FF00003FB609B
:1049700046F20003C4F201035B6803F00103BB606D
:1049800014E046F20003C4F201037968FA680A44AD
:1049900012781A61FB6803F10103FB6046F2000321
:1049A000C4F201035B6803F00103BB60BB68002B2A
:1049B00003D0FA683B689A42E3D3FB68184607F1D4
:1049C0001407BD4680BC704780B582B000AF034677
:1049D000FB7145F2C423C2F200031B68002B07D011
:1049E00045F2C423C2F200031B68FA7910469847C7
:1049F00007F10807BD4680BD00220A2300F0C8B8B1
:104A000000210A2200F064B970B545F2F00645F2C3
:104A1000F005C2F20006C2F20005761BB61006D001
:104A2000002455F8243001349847A642F9D845F2BD
:104A3000F00545F2F406C2F20005C2F20006761B4C
:104A400000F04AFBB61006D0002455F8243001349B
:104A50009847A642F9D870BD032A30B405460C46E3
:104A600025D941EA000313F0030F15D0287894F8F4
:104A700000C060451ED1013A002306E040780133B2
:104A800091F801C0013A604514D1E818E118002AF4
:104A9000F4D1002030BC704704680B689C4204D1FC
:104AA000043A04300431032AF6D805460C46002A9D
:104AB000DCD1EEE7CCEB0000ECE700BF032AC9B283
:104AC00030B407D822B10023C15401339342FBD143
:104AD00030BC704700EB020C034601E003F8011CF8
:104AE00003F003041A460133002CF7D14FF00133D1
:104AF000C2EB0C0403FB01F31FE042F8403C42F818
:104B00003C3C42F8383C42F8343C42F8303C42F8F5
:104B10002C3C42F8283C42F8243C42F8203C42F825
:104B20001C3C42F8183C42F8143C42F8103C42F855
:104B30000C3C42F8083C42F8043C154640323F2CFD
:104B4000A4F14004D9DC2A46C5EB0C0407E042F886
:104B5000103C42F80C3C42F8083C42F8043C154634
:104B600010320F2CA4F11004F1DC2A46C5EB0C0521
:104B700001E042F8043C14460432032DA5F104057B
:104B8000F7DC01E004F8011B6445FBD3A0E700BF9C
:104B90002DE9F04F45F24025C2F2000583B00C46E6
:104BA0001F46D5F800800E460190009216F8015B72
:104BB00008EB050393F801B01BF0080BF6D12D2D7F
:104BC00065D02B2D08BF16F8015BD7F1010338BF64
:104BD0000023102F14BF1A4643F0010232B1302DCA
:104BE00066D01BB1302D0CBF08270A27BBF1000F80
:104BF000394614BF4FF000496FF00049484600F0B5
:104C0000A1F948468A46394600F06EF800218C46E4
:104C100008EB0502A5F13003527812F0040F08D119
:104C200012F0030F20D012F0010F14BF37235723C7
:104C3000EB1A9F4218DD844594BF0022012252EAFC
:104C4000D1714FF0FF310CD1844514BF00220122F5
:104C50005345D4BF002202F0010212B907FB0C3CFD
:104C6000012116F8015BD3E7B1F1FF3F14D0BBF18E
:104C7000000F09D16046009B1BB101B1741E009A60
:104C8000146003B0BDE8F08FCCF10000F3E716F834
:104C9000015B4FF0010B98E7019ABBF1000F4FF059
:104CA000220314BF4FF000406FF000401360E2E7B2
:104CB0003278782A14BF00210121582A14BF0A46ED
:104CC00041F00102002A8CD07578102702368DE75A
:104CD00010B445F24814C2F200048C461346014653
:104CE0006246206810BC53E74A1E08BF7047C0F0F8
:104CF0002481884240F21681114200F01781B0FAF7
:104D000080F3B1FA81F2A2EB0303C3F11F0304A203
:104D100002EB03134FF000029F4600BFAFF3008089
:104D2000B0EBC17F00BF42EB020228BFA0EBC17015
:104D3000B0EB817F00BF42EB020228BFA0EB817085
:104D4000B0EB417F00BF42EB020228BFA0EB4170F5
:104D5000B0EB017F00BF42EB020228BFA0EB017065
:104D6000B0EBC16F00BF42EB020228BFA0EBC160F5
:104D7000B0EB816F00BF42EB020228BFA0EB816065
:104D8000B0EB416F00BF42EB020228BFA0EB4160D5
:104D9000B0EB016F00BF42EB020228BFA0EB016045
:104DA000B0EBC15F00BF42EB020228BFA0EBC150D5
:104DB000B0EB815F00BF42EB020228BFA0EB815045
:104DC000B0EB415F00BF42EB020228BFA0EB4150B5
:104DD000B0EB015F00BF42EB020228BFA0EB015025
:104DE000B0EBC14F00BF42EB020228BFA0EBC140B5
:104DF000B0EB814F00BF42EB020228BFA0EB814025
:104E0000B0EB414F00BF42EB020228BFA0EB414094
:104E1000B0EB014F00BF42EB020228BFA0EB014004
:104E2000B0EBC13F00BF42EB020228BFA0EBC13094
:104E3000B0EB813F00BF42EB020228BFA0EB813004
:104E4000B0EB413F00BF42EB020228BFA0EB413074
:104E5000B0EB013F00BF42EB020228BFA0EB0130E4
:104E6000B0EBC12F00BF42EB020228BFA0EBC12074
:104E7000B0EB812F00BF42EB020228BFA0EB8120E4
:104E8000B0EB412F00BF42EB020228BFA0EB412054
:104E9000B0EB012F00BF42EB020228BFA0EB0120C4
:104EA000B0EBC11F00BF42EB020228BFA0EBC11054
:104EB000B0EB811F00BF42EB020228BFA0EB8110C4
:104EC000B0EB411F00BF42EB020228BFA0EB411034
:104ED000B0EB011F00BF42EB020228BFA0EB0110A4
:104EE000B0EBC10F00BF42EB020228BFA0EBC10034
:104EF000B0EB810F00BF42EB020228BFA0EB8100A4
:104F0000B0EB410F00BF42EB020228BFA0EB410013
:104F1000B0EB010F00BF42EB020228BFA0EB010083
:104F2000104670470CBF012000207047B1FA81F293
:104F3000C2F11F0220FA02F0704708B14FF0FF30B3
:104F400000F00EB80029F8D02DE90340FFF7CCFEA1
:104F5000BDE8064002FB00F3A1EB0301704700BF70
:104F6000704700BF34850020460900005309000047
:104F70006100000064000000680000006B00000099
:104F8000720000006D0000007A0000004920686196
:104F90007665206265656E207265636F7665726501
:104FA0006420776974682035304D485A0A00000043
:104FB0007000000071000000620000006E00000040
:104FC00090AB000011640000000100010202030325
:104FD000430000000020202020202020202028281E
:104FE00028282820202020202020202020202020A9
:104FF00020202020208810101010101010101010E9
:105000001010101010040404040404040404041018
:1050100010101010101041414141414101010101A6
:105020000101010101010101010101010101010170
:10503000101010101010424242424242020202027C
:105040000202020202020202020202020202020240
:1050500010101010200000000000000000000000F0
:105060000000000000000000000000000000000040
:105070000000000000000000000000000000000030
:105080000000000000000000000000000000000020
:105090000000000000000000000000000000000010
:1050A0000000000000000000000000000000000000
:1050B00000000000000000000000000000000000F0
:1050C00000000000000000000000000000000000E0
:1050D0000000000000000000F8B500BFF8BC08BCEC
:1050E0009E467047F8B500BFF8BC08BC9E467047A6
:1050F000D5040020C10400200000000000000000D2
:1051000000000000980000000001050701050700ED
:105110000203010507000000040607000507000060
:1051200006070000F11F00000100000080F0FA02F5
:1051300080F0FA0280F0FA0220BCBE0080F0FA0291
:1051400080F0FA0280F0FA024C51002000000000CA
:10515000000000000000000000000000000000004F
:10516000000000000000000000000000D04F002000
:10517000000000000000000000000000000000002F
:10518000000000000000000000000000000000001F
:10519000000000000000000000000000000000000F
:1051A00000000000000000000000000000000000FF
:1051B00000000000000000000000000000000000EF
:1051C00000000000000000000000000000000000DF
:1051D00000000000000000000000000000000000CF
:1051E00000000000000000000000000000000000BF
:1051F00000000000000000000000000000000000AF
:10520000000000000000000000000000000000009E
:10521000000000000000000000000000000000008E
:10522000000000000000000000000000000000007E
:10523000000000000000000000000000D54F00202A
:10524000D44F00200000000000000000000000001B
:040000052000019145
:00000001FF
